:020000040001F9
:10F00000884D002015F201001DF201001FF20100E1
:10F0100021F2010023F2010025F2010000000000AE
:10F0200000000000000000000000000027F20100C6
:10F0300029F20100000000002BF201002DF2010076
:10F0400079FA01002FF20100D1FF01004DFC01000F
:10F050002FF201002FF201004DF8010005FB010025
:10F0600081FF010095FF0100A9FF01002FF20100BF
:10F070002FF201002FF201002FF201002FF2010008
:10F080002FF20100E1FA01002FF201002FF201003E
:10F090005DFC01002FF2010061FC01002FF2010074
:10F0A0002FF201002FF20100BDFF01002FF201003D
:10F0B000D1FA01002FF20100000000000000000062
:10F0C0002FF201002FF201002FF201002FF20100B8
:10F0D0002FF201002FF201002FF2010000000000CA
:10F0E0000000000000000000000000000000000020
:10F0F0000000000000000000000000000000000010
:10F1000000000000000000000000000000000000FF
:10F1100000000000000000000000000000000000EF
:10F1200000000000000000000000000000000000DF
:10F1300000000000000000000000000000000000CF
:10F1400000000000000000000000000000000000BF
:10F1500000000000000000000000000000000000AF
:10F16000000000000000000000000000000000009F
:10F17000000000000000000000000000000000008F
:10F18000000000000000000000000000000000007F
:10F19000000000000000000000000000000000006F
:10F1A000000000000000000000000000000000005F
:10F1B000000000000000000000000000000000004F
:10F1C000000000000000000000000000000000003F
:10F1D000000000000000000000000000000000002F
:10F1E000000000000000000000000000000000001F
:10F1F000000000000000000000000000000000000F
:10F20000DFF80CD000F098FA00480047AD28020063
:10F21000884D00200648804706480047FEE7FEE785
:10F22000FEE7FEE7FEE7FEE7FEE7FEE7FEE7FEE7B6
:10F2300085FC010001F2010040EA01039B0703D0B5
:10F2400009E008C9121F08C0042AFAD203E011F825
:10F25000013B00F8013B521EF9D27047D2B201E0E7
:10F2600000F8012B491EFBD270470022F6E710B5CB
:10F2700013460A4604461946FFF7F0FF204610BD24
:10F280002DE9FE4F81EA030404F0004421F000411F
:10F2900000944FF0000B23F0004350EA01045ED0CD
:10F2A00052EA03045BD0C3F30A54C1F30A552C4459
:10F2B000A4F2F3340194A0FB0254C1F3130141F40E
:10F2C0008011C3F3130343F4801301FB024400FBDA
:10F2D000034E840A970A44EA815447EA8357A4FB01
:10F2E000076802958D0A05FB07854FEA932C04FBFE
:10F2F0000C542705029D4FEA065847EA1637B5EB2E
:10F3000008056EEB070C870E920E47EA811742EA5A
:10F310008312A7FB0201B6EB0B0164EB00042B0D7B
:10F3200043EA0C335E1844EB1C50DA465146E7FBC7
:10F330000201C5F313044FEA0B3343EA14534FEAB7
:10F340000432019C43EA0603A4F10C040294009CDD
:10F35000CDE900B400F0CBF803B0BDE8F08F002099
:10F360000146F9E72DE9F04D81EA030404F0004B72
:10F3700021F0004514464FF0000A23F0004150EA06
:10F38000050220D054EA01021DD0C5F30A570246F7
:10F39000C5F31303C1F31300C1F30A5640F48015FB
:10F3A00043F48013A7EB0608101BD64608F2FD387D
:10F3B00073EB050002D308F1010801E092185B41EC
:10F3C000B8F1000F03DA00200146BDE8F08D0020FF
:10F3D0004FF48011064684460EE0171B73EB0507B9
:10F3E00005D3121B63EB050306434CEA010C4908E5
:10F3F0004FEA300092185B4150EA0107EDD152EA22
:10F40000030012D082EA040083EA0501084305D014
:10F41000101BAB4106D20122002306E000224FF070
:10F42000004302E06FF0010253101AEB06004CEBB0
:10F43000085110EB0A0041EB0B01BDE8F04D00F064
:10F4400047B830B50B46014600202022012409E0D0
:10F4500021FA02F59D4205D303FA02F5491B04FA8D
:10F4600002F52844151EA2F10102F1DC30BD2DE9A0
:10F47000F05F0546002092469B4688460646814638
:10F4800040241BE0284641464746224600F075F9D5
:10F4900053465A46C01A914110D311461846224687
:10F4A00000F05CF92D1A67EB01084F462246012057
:10F4B000002100F053F917EB00094E41201EA4F182
:10F4C0000104DFDC484631462A464346BDE8F09F4A
:10F4D00010B5141E73F1000408DA401C41F100015C
:10F4E00092185B411A4301D120F0010010BD2DE9B3
:10F4F000F04D92469B4611B1B1FA81F202E0B0FAAA
:10F5000080F22032904600F029F904460F4640EA86
:10F510000A0041EA0B0153465A46084313D01146EC
:10F5200053EA010019D0C8F14002504600F025F915
:10F5300005460E4650465946424600F00FF908432C
:10F5400005D0012004E020463946BDE8F08D0020BA
:10F55000054346EAE0762C4337430A986305E40AFC
:10F56000A0EB08000022FD0A44EA47540A3002D505
:10F5700000200146E9E7010510196941DDE9084568
:10F5800000196941BDE8F04DA2E72DE9FE4F804624
:10F5900081EA0300C00F0C46009021F0004123F0E7
:10F5A0000045B8EB0200A94105D2404621469046ED
:10F5B0001C460B46024623F00040104347D0270D5F
:10F5C000C7F30A00C3F30A510290401A0190402881
:10F5D0006BDAC3F3130040F4801B0098924620B10D
:10F5E0000023D2EB030A63EB0B0B01985946C0F1E1
:10F5F0004002504600F0B2F806460D4650465946C5
:10F60000019A00F0CAF810EB08006141002487EA73
:10F61000115284EAE7731A4340D0009A62B3019A08
:10F62000012A4FEA075215DC001B61EB02014FF083
:10F63000004202EA0752CDE90042001C41F5801168
:10F6400032462B46FFF753FF03B0BDE8F08F40462C
:10F650002146F9E7001B61EB0201001C41F5801314
:10F6600000185B412018A2F5001747EB030140EAA0
:10F67000D570B6196D4111E06D084FEA360645EABE
:10F68000C0754FEA0752001B61EB0201001C41F5F7
:10F69000801149084FEA30000019514132462B468B
:10F6A00003B0BDE8F04FFFF713BF00980122400000
:10F6B0000023D0EB020263EBE073009821464FEA8F
:10F6C000E074B8EB000061EB0401E9E783F000436C
:10F6D0005BE781F0004158E7C1F30A52C1F313011F
:10F6E00040F2FF3341F480119A4202DA00200146D1
:10F6F000704740F233439A42A2F2334202DC524254
:10F7000000F03BB800F02AB830B5041E71F10004D7
:10F7100004DB4FF00044404264EB0101141E73F11E
:10F72000000405DB1C464FF00043524263EB040328
:10F73000994208BF904230BD064C074D06E0E06894
:10F7400040F0010394E8070098471034AC42F6D328
:10F75000FFF75AFDD4510200F4510200202A04DBC5
:10F76000203A00FA02F1002070479140C2F12003D4
:10F7700020FA03F3194390407047202A04DB203A13
:10F7800021FA02F00021704721FA02F3D040C2F1C1
:10F7900020029140084319467047202A06DBCB1708
:10F7A000203A41FA02F043EAE07306E041FA02F33C
:10F7B000D040C2F120029140084319467047000032
:10F7C000FFB583B00746002001909DF81010164643
:10F7D000044602908DF8041000901D4604AA394694
:10F7E000094803F067FE2B4601AA3946064803F094
:10F7F0004FFE01A903E00A5D3255641CE4B2AC423D
:10F80000F9D307B040B2F0BD90500200FEB500241D
:10F810008DF8041001A904E0155D0E19641C7570C3
:10F82000E4B29C42F8D3002100915B1C0146DBB29C
:10F8300001AA024803F03EFE40B2FEBD9050020015
:10F840004FF47A71484303F085B900002DE9F04781
:10F8500000268CB0DFF86091B0464FF4807501242B
:10F8600037460696284604F0F3F838B1D9F8040371
:10F87000204203D0284604F0E1F826432D1D640001
:10F880007F1CADB2082FEDD34FF4BE74204604F0B8
:10F89000DFF848B1204604F0D1F846F0004606AA49
:10F8A0000121002004F0B6F8444D16F0FF0F15D0EA
:10F8B0000127002437420DD009EB8401D1F810054F
:10F8C000D1F81015C0F3042055F82420C1F30141EC
:10F8D00002B190477F00641C082CEBD3002E67DA3E
:10F8E0004FF0FF30CDE9088000263446281910F883
:10F8F000507F90F9000027F0C008401C44D009A9AF
:10F90000404603F0B5F858B34FEA9719404602F065
:10F9100057FA55F820701FB1B9F1030F03D00FE06B
:10F92000B9F1030F30D108A84FEAD80208F0070355
:10F93000815C4FF0010C0CFA03FC41EA0C0181548C
:10F940004FF0A04101EB8800D0F8000706A9C0F3F2
:10F95000014A404603F08CF818B1BAF1020F03D007
:10F9600012E0BAF1030F0FD1B9F1030F08D1BAF1C8
:10F97000020F1BD00221404604F028F8761CF6B294
:10F9800017B149464046B847641C042CAED3002E3C
:10F990000ED06A460121002004F03CF80699009838
:10F9A000884205D00690089809909DE70321E2E778
:10F9B0000CB0BDE8F087000000600040B8270020D0
:10F9C00006480549C160064901610649416128218F
:10F9D00041720020704700000DF801004C25002006
:10F9E000C1F7010041F8010000F01F020121914020
:10F9F0004009800000F1E020C0F88012704700F05C
:10FA00001F02012191404009800000F1E020C0F870
:10FA10008011704700F01F020121914040098000D1
:10FA200000F1E020C0F80011704700F01F02012132
:10FA300091404009800000F1E020C0F800117047BB
:10FA400000F01F02012191404009800000F1E020F8
:10FA5000C0F8001270474907090E002806DA00F0C6
:10FA60000F0000F1E02080F8141D704700F1E02045
:10FA700080F80014704700002DE9F0414FF48077C2
:10FA8000384603F011F80124104EA50748B1384656
:10FA900003F011F80120C5F808037470002002F08B
:10FAA00097F94FF48277384602F0FEFF00280BD01A
:10FAB000384603F000F80220C5F80803B470BDE82A
:10FAC000F041012002F084B9BDE8F081A4270020B4
:10FAD0000149024802F09BBCBC21002000C001404B
:10FAE00007480021C0F84011C0F84411C0F848117F
:10FAF000C0F84C11C0F80011C0F8041104F014BE95
:10FB0000001001402DE9FE434FF48278404604F096
:10FB100025F94C4F00254C4C012600B3404604F01B
:10FB200025F994F82E0010B194F82F10D1B18DF86A
:10FB30000050616801912189ADF80810E26832B186
:10FB4000218B618362602181E56010B102E0257440
:10FB500000E03E6021686846884784F82F5094F89A
:10FB60002E0060B34FF48077384604F0F7F830B3D6
:10FB7000384604F0FBF8628B94F82D108A420AD9BB
:10FB8000A2EB010080B260832289A2EB00006268D0
:10FB900002EB400005E007D1E06828B184F82F604F
:10FBA000658304F095F804E08A4202D184F82F605E
:10FBB0006583404604F0DAF82248001D06604FF4E1
:10FBC0008877384604F0CAF848B1384604F0CEF8D1
:10FBD000257402208DF800002168684688474FF49C
:10FBE0008A77384604F0BAF828B1384604F0BEF8EF
:10FBF0002574BDE8FE834FF000484FF48C796769A7
:10FC00001DE000BFB7FA87F028FA00F109EB800584
:10FC10008F43284604F0A2F888B1284604F0A6F8DD
:10FC2000A5F58C75E8088DF8040045F38000401CAC
:10FC30008DF800608DF80500216868468847002F20
:10FC4000E0D1D6E700700040582800200149024862
:10FC500002F02CBC302800200030004004F0BCBC76
:10FC6000074810B5406830B18047002807D0BDE88C
:10FC7000104000F0F5BFBDE8104002F02FBB10BDF2
:10FC80001C220020F0B5AE480023021D017801259A
:10FC9000101D4FF0805406290BD11678360708D175
:10FCA0000678C6F30316032E06D0042E04D0052EC4
:10FCB00002D0062907D00EE0B4F82463A14FC6F3A2
:10FCC00004263E6002E01678360704D10678C6F3B3
:10FCD0000316032E02D0062904D00FE09B4F9A4E44
:10FCE0007E670EE01678360708D10678C6F303164D
:10FCF000032E06D0042E04D0052E02D0062907D0EC
:10FD00000EE0D4F84462924FC6F342363E6002E001
:10FD10001678360704D10678C6F30316032E02D0F0
:10FD2000062906D011E08B4E376827F080773760C0
:10FD30000EE01678360708D10678C6F30316032EB0
:10FD400006D0042E04D0052E02D006290AD011E0D8
:10FD50004FF08046C6F80C31C6F810317C4E361F85
:10FD6000336002E01678360704D10678C6F303162E
:10FD7000032E02D0062905D00CE0754F0326643708
:10FD80003E600AE01678360704D10678C6F30316FB
:10FD9000032E02D006290DD014E06F4F05263E60D9
:10FDA0006D4E783635606C4E083633603F263F1D09
:10FDB0003E6002E01678360704D10678C6F30316D3
:10FDC000052E02D0062957D062E0644E3668644F93
:10FDD0003E60624E361D36683F1D3E605F4E0836FF
:10FDE00036683F1D3E605D4E0C3636683F1D3E60F6
:10FDF0005A4E103636683F1D3E60584E14363668EF
:10FE00003F1D3E60554E18363668554F20373E60D0
:10FE1000524E1C3636683F1D3E60504E20363668C6
:10FE20003F1D3E604D4E243636683F1D3E604B4EB2
:10FE3000283636683F1D3E60484E2C3636683F1DDA
:10FE40003E60464E30363668454F40373E60434E42
:10FE5000343636683F1D3E60404E383636683F1DAA
:10FE60003E603E4E3C3636683F1D3E603B4E40365F
:10FE700036683F1D3E6002E01678360708D10678E6
:10FE8000C6F30316032E06D0042E04D0052E02D08E
:10FE9000062907D019E0D4F85812324A01F04F0170
:10FEA000116002E0117809070FD10078C0F3031048
:10FEB000032803D0042801D0052806D12A48016868
:10FEC000C90702D06FF0010101602248743801684F
:10FED00041F470010160BFF34F8FBFF36F8F4FF09C
:10FEE0001021D1F80002002803DBD1F80402002819
:10FEF00022DA1E4A15601E480468002CFCD0152426
:10FF0000C1F800420568002DFCD0C1F80442016828
:10FF10000029FCD0136001680029FCD0BFF34F8F8B
:10FF20000C48F0380168134A01F4E06111430160A4
:10FF3000BFF34F8F00BFFDE710490F480860F0BDC9
:10FF4000E00F00F0403501400DF0ADBA00C00740B1
:10FF50003C050040FCED00E0105600400404001099
:10FF600020C50040E40E00400004004004E50140CC
:10FF700000E401400400FA050090D0033022002084
:10FF800004220249024802F021BA00008828002019
:10FF90000080004004220249024802F017BA000023
:10FFA000942800200090004004220249024802F0F8
:10FFB0000DBA0000A028002000A00040062202493F
:10FFC000024802F003BA0000AC28002000A0014063
:10FFD0000448017F04480029024901D004F01BBFF6
:10FFE00004F08ABE10280020002000400FB4054B0A
:10FFF00010B503A9044A029800F0ECF810BC5DF8B3
:020000040002F8
:1000000014FB0000A72102000822002002E008C81B
:10001000121F08C1002AFAD170477047002001E082
:1000200001C1121F002AFBD17047000001212028C6
:1000300003DA81400548014003E0402802DA203815
:10004000814009B10120704700207047FC06FFBCC9
:100050002DE9FF5F82B00021DDE90430020DDDF8FB
:1000600040B0034318D044F61050A2F2FF3242438E
:100070001514119801281FD0A5EB0B00401C5FEA56
:10008000000A4FF000064E4FDFF83891B046504658
:1000900015D5CAF1000413E0119801244AA30128E0
:1000A00001D16FEA0B010298119AC0E90031C0E951
:1000B000024206B0BDE8F09FCBF10000DFE7044646
:1000C0000021404A491842EB0450CDE9001012E0EB
:1000D000E00707D032463B4640464946FFF7D0F896
:1000E0008046894632463B4610461946FFF7C8F817
:1000F00006460F466410002CEAD1DDE90401DDE973
:100100000023BAF1000F06DAFFF7BAF842464B4671
:10011000FFF7B6F805E0FFF725F942464B46FFF733
:1001200021F904460E460022284BFFF7EDFA03D8CA
:100130004FF0FF30014607E00022254B20463146B4
:10014000FFF723FAFFF7C8FA102409E0002C0ADBB6
:100150000A220023FFF78BF9039B30321A55641EE5
:1001600050EA0102F2D1641C039AC4F11103144451
:10017000119A012A03D0012208430DD10AE0084355
:1001800004D000204FF0110B119072E7A3EB0B0588
:100190006D1E0DE05B4504DD4FF0000205F1010529
:1001A00004E003DA4FF00002A5F10105002AECD0CB
:1001B00002981199C0E90231C0E9004579E70000D1
:1001C000000014400000F03F300000000000F04349
:1001D0000000E03F2DE9FF4F95B09B46894606465B
:1001E00000250FE2252877D100242746F84A01216F
:1001F000059400E0044316F8013F203B01FA03F0A8
:100200001042F7D130782A2811D06FF02F033078C0
:10021000A0F13002092A16D8059A44F0020402EB34
:10022000820203EB42021044761C0590EFE759F876
:10023000042B0592002A03DA504244F4005405903E
:1002400044F00204761C30782E2816D116F8010FDF
:1002500044F004042A280DD06FF02F023078A0F16A
:100260003003092B09D807EB870302EB4303C718B8
:10027000761CF3E759F8047B761C30786C280FD095
:1002800006DC4C2817D068280DD06A2814D104E069
:10029000742810D07A280FD10DE044F400140AE03D
:1002A00044F4801401E044F440147278824202D194
:1002B00004F58014761C761C307866280BD013DC8D
:1002C000582877D009DC002875D04528F6D0462874
:1002D000F4D047281AD19DE118E0632835D064286E
:1002E00079D0652812D195E1702873D008DC672891
:1002F000F1D069286FD06E280DD06F2806D1B5E0F7
:1003000073282CD0752875D0782874D05A46179940
:1003100090476D1C75E1C4F30250022809D00328F0
:100320000DD0D9F8001004280DD00D6009F1040992
:1003300067E1D9F80010EA17C1E90052F6E7D9F8E9
:1003400000100D80F2E70D70F0E719F8041B8DF82E
:10035000001000208DF80100EA46012003E059F862
:1003600004AB4FF0FF3061074FF0000102D40DE005
:1003700008F101018846B9420FDA8045F8DB1AF826
:1003800008100029F4D108E008F1010188468142F3
:10039000FADB1AF808100029F6D105985B46A0EBA5
:1003A000080721463846179A00F094FA284400EBD3
:1003B000080507E04DE029E10DE01AF8010B5A4667
:1003C00017999047B8F10108F7D25B4621463846A5
:1003D000179A13E142E00A220092C4F302524FF04E
:1003E000000A022A08D059F804CB032A4FEAEC711C
:1003F0000AD00DE029E02AE009F1070121F0070207
:10040000F2E802C1914609E00FFA8CFC4FEAEC7168
:10041000042A03D14FFA8CFC4FEAEC71002907DA69
:100420000A460021DCF1000C61EB02012D2202E002
:10043000220504D52B228DF80420012203E0E207D7
:1004400001D02022F7E7904659E00A2102E010226D
:100450000DE010214FF0000A00910BE010224FF048
:10046000000A44F004040827009203E008224FF039
:10047000000A0092C4F30252022A05D059F804CBB4
:100480000021032A08D009E009F1070121F0070241
:10049000F2E802C1914605E01FFA8CFC042A01D162
:1004A0000CF0FF0C4FF00008220728D5702806D06A
:1004B000009B83F0100353EA0A0305D00EE04022AC
:1004C0008DF80420012208E05CEA010206D0302207
:1004D0008DF804208DF8050002229046009B83F0E1
:1004E000080353EA0A030AD15CEA010201D1620758
:1004F00005D530228DF804204FF001087F1E5828C2
:1005000004D034A003900EA802900DE036A0F9E7C5
:1005100053466046009AFEF7AAFF84460398825C21
:100520000298401E029002705CEA0100F0D102982D
:1005300006A9081A00F1200A600702D524F48034C5
:1005400000E00127574502DDA7EB0A0000E000208C
:1005500000EB0A01009005984144401A0590E00321
:1005600006D45B462146179A059800F0B3F9054476
:10057000002706E001A85A46C05D179990476D1CF8
:100580007F1C4745F6DBE0030CD55B462146179AF6
:10059000059800F09FF9054404E030205A46179969
:1005A00090476D1C0099481E00900029F5DC08E07A
:1005B000029802995A460078491C0291179990476F
:1005C0006D1CBAF10001AAF1010AF1DC65E100003D
:1005D0000928010030313233343536373839616219
:1005E00063646566000000003031323334353637DD
:1005F00038394142434445460000000000F058F9B4
:100600000544761C307800287FF4ECAD19B02846FC
:10061000BDE8F08F620700D4062709F1070222F037
:10062000070CFCE80223E14603F000485FEA080CEF
:1006300002D00FF2702C0DE05FEA045C02D50FF2DD
:10064000682C07E05FEAC47C02D00FF2602C01E066
:10065000AFF2700C4FF0FF3823F00043CDF850C0DC
:1006600065280CD006DC452809D046281DD047282F
:100670003DD13DE0662818D067287ED138E00021C2
:10068000112F01DB112000E0781CCDE9000106A943
:100690000EA8FFF7DDFCDDE90F010E9A03910021A2
:1006A000009207F1010A04914DE04FF000400097DD
:1006B000CDE9011006A90EA8FFF7CAFCDDE90F027B
:1006C00003920E9B11990022DDF80CA00093049276
:1006D00011B9791C00EB010AB7EB0A0004D4C0F190
:1006E000FF3007F1010A0490AAEB0700019044E0F3
:1006F000012F00DA01270021112F01DD112000E078
:100700003846CDE9000106A90EA8FFF7A1FCDDE9F6
:100710000F010E9A0391002104910092BA4621071D
:100720000CD40399514500DA8A46BAF1010F05DD70
:10073000009AAAF10101515C302908D0B84202DACE
:1007400010F1040F06DA0121CDE9011015E0AAF13C
:100750000101E9E7002805DC049901440491AAEBB2
:10076000000102E0411C514500DD8A460499401A0F
:10077000401C01904FF000400290200704D40198E3
:10078000504501DBCDF8048000208DF84F00029821
:100790000DF14F07B0F1004F25D02B200E9002989D
:1007A0004FF0020800280CDA404202902D200E90F3
:1007B00007E00A210298FEF744FE3031029007F864
:1007C000011DB8F10001A8F10108F2DC029800282F
:1007D000EFD1791E0E980870307800F0200040F0BC
:1007E000450007F8020D12A8C01B00F10708149875
:1007F000007800B1012000EB0A01019801EBE071E3
:1008000005984144401A401E0590E00306D45B461B
:100810002146179A059800F05DF805441498007871
:1008200018B15A46179990476D1CE00324D55B46D2
:100830002146179A059800F04DF805441CE00498ED
:10084000002807DBDDE90301884203DD0098405CF6
:10085000179901E0179930205A469047049805F1FE
:100860000105401C04900198401E019004D12E20E7
:100870005A46179990476D1CBAF10001AAF1010A76
:10088000DDDC05E017F8010B5A46179990476D1CFF
:10089000B8F10001A8F10108F4DC5B462146179A83
:1008A0000598ABE62D0000002B00000020000000A2
:1008B0002DE9F041044600251E461746880404D45D
:1008C00005E039462020B0476D1C641EF9D5284646
:1008D000BDE8F0812DE9F041044600251E46904612
:1008E000C80301D5302700E02027880404D505E09F
:1008F00041463846B0476D1C641EF9D52846BDE810
:10090000F0812DE9FC47002517880646158090F8F0
:100910002D001446894630B13A462146484600F03B
:1009200089FD050009D1B0784FF00C0A18B3208872
:10093000C846001DB84202D95046BDE8FC8768464B
:1009400079DF0028F9D12088032108F800102088D9
:100950001921401C80B2208008F800102088401C1B
:1009600080B2208000EB0801BDF8000004F0CBFA53
:10097000218808442080F0780222C8B1218896F9A5
:10098000033001F1030C4846BC45D5D842542188B8
:100990004FF0010C491C89B2218000F801C0218868
:1009A000491C89B2218009F801302088401C208030
:1009B0007068B8B1218890F9003001F1030C484605
:1009C000BC45B9D8425421880A22491C89B22180E9
:1009D00042542188491C89B2218009F801302088BD
:1009E000401C2080308950B1CDE900474B4606229B
:1009F000022106F1080004F0D3FA05009DD1308AE7
:100A000050B1CDE900474B460722032106F1100003
:100A100004F0C6FA050090D1308B50B1CDE9004703
:100A20004B461522142106F1180004F0B9FA05000E
:100A300083D1306A30B13B462246494601F032FA52
:100A40000500DBD1706A30B13B462246494601F0D1
:100A50008FFF0500D2D196F82C0038B13B462246D4
:100A60004946304603F074FC0500C7D1307838B1F0
:100A70003B4622464946304601F0ACFF0500BDD159
:100A800028465AE7134A0021535C0BB1012203E0C8
:100A9000491C0629F8D300220F49012806D0022854
:100AA00009D003280CD0042812D10DE0487810B1E9
:100AB0000AB101207047887810B10AB1022070474E
:100AC000C87808B103207047087908B1042070473E
:100AD0000020704799210020B426002010B5012283
:100AE0000221002000F0C8FF08B1072810D107221A
:100AF0000221012000F0C0FF08B1072808D1002121
:100B00000A22084600F0B8FF08B1072800D10020EB
:100B100010BD000030B5A7B03C2101A8FEF7A5FB31
:100B200002208DF8040000248DF8064005208DF881
:100B300007003C2110A8FEF798FB0E4801251590F0
:100B4000ADF8505020211FA8FEF78FFB40202390C6
:100B50008DF87F50B4202490074B1FAA10A9009451
:100B600001A800F0B9FA002801D000F079F827B008
:100B700030BD00002A210020FF3D020070B5002496
:100B8000064D06E06868012110F8340002F068F9AB
:100B9000641C28788442F5D3002070BDC421002055
:100BA000F8B515460C460646052A01D20720F8BDC1
:100BB00002F03CFA18B902F00BFA0028F7D11049FC
:100BC00000204E600C70C1E902500E4D08610DE02E
:100BD00006EBC4006968009181788DF801100078F7
:100BE000094A694602F08EF90028E0D1641EE4B299
:100BF000EED2BDE8F840054A0021024800F064B892
:100C0000C42100201851020085220200D91F0200D1
:100C10000BA1012002F0F8FF02F05AFF02F05CFF86
:100C20000028FBD1BFF34F8F0B4801680B4A01F43A
:100C3000E06111430160BFF34F8F00BFFDE700008B
:100C40004150505F4552524F523A4552524F523ADC
:100C5000466174616C0D0A000CED00E00400FA05B9
:100C60000EB500210091CDE901106A4644F2010061
:100C7000FFF7CEFF0EBD10B58268C368934203D064
:100C800001F07EFA002010BD052010BD29B112B17F
:100C9000531E134203D0092070470E207047016095
:100CA000838000218160C1600846704710B582686A
:100CB000C3689A1A83889A4203D801F06BFA00201D
:100CC00010BD042010BD0000074B5B6823B12AB1A2
:100CD00020B10068037C1BB10820704707207047D3
:100CE0004174426100207047E82100202DE9F0475F
:100CF000074698461446894690074FF0000526D1CE
:100D00002CB303F06FF9134E06F11000C6F80C80F7
:100D10000570457080F8029044607560357075709C
:100D20001420FEF761FE07211420FEF794FE142024
:100D3000FEF770FE0848076007211120FEF78BFEC2
:100D40000548001F0068B0600020BDE8F08707205C
:100D5000FBE70000D8210020081501402DE9FC47E1
:100D6000DFF87890D9F8043073B368B3052902D25C
:100D70000720BDE8FC87436933B3437C012B25D0B2
:100D8000002704460025884616468DF80050684620
:100D900000F0CAF801A804F0EBF8C8B10121017015
:100DA0000F4944600968C0E90218C0E904769DF85B
:100DB000040089F801009DF8000000F0D9F8142023
:100DC000FEF73EFE2846D4E70820D2E70F46D8E7D4
:100DD00004259DF8000000F0CBF8F3E7E82100209F
:100DE000041501400649496839B130B1416921B162
:100DF00000210174022103F073BC08207047000039
:100E0000E821002070B50A4E01460A48B578FFF780
:100E100032FF04464DB10020B070711C0122C81D84
:100E200002F0A0FB08B1FFF71BFF204670BD0000D9
:100E3000F8210020D8280020F0B5284E89B01F46A0
:100E40000D00044672603BD0A888296882B224480D
:100E5000FFF71CFF002834D1A889A96882B2204876
:100E60001030FFF713FF00282BD120221D496846C0
:100E7000FEF7E2F960690690207C00B101208DF850
:100E800014008DF81C70607C00B10E208DF81500E8
:100E9000E0680290A068039020680190606800906C
:100EA0000E48114A6946083002F028FB002808D194
:100EB000B0702068401C04D09DF81D0018B106E0F9
:100EC000072009B0F0BD0548083002F0A3FB034934
:100ED0000122491CC81D02F045FBF2E7F821002061
:100EE000D828002020510200014C020010B5014614
:100EF0000B48FFF7DBFE040010D10A4802F0D4FCD7
:100F000060B9084906480839FFF7B5FE30B9054908
:100F100001220839034802F041FC0446204610BD76
:100F2000E82800200022002030B5EFF3108172B6CF
:100F30000D4A9468012324B10370002900D162B6E0
:100F400030BD93604FF0E023D3F88051074C25402B
:100F50001560C3F88041D3F8844154605A17C3F830
:100F6000842100220270E8E7F8280020FC06FFBC7C
:100F70000B498A68002A11D000280FD1EFF31080A6
:100F800072B60B684FF0E022C2F800314B68C2F82D
:100F9000043100228A60002800D162B67047000048
:100FA000F82800202DE9F041064608680C46411C4F
:100FB0004FF0A0474FF0010506D005FA00F1C7F841
:100FC0000815206802F0F8FC6068411C02D000217E
:100FD00002F0DFFC3079204901EB4010A169007F6D
:100FE00000283068C0F8241525D0607D227D316846
:100FF0001043C1F86C05D4E900123068C0F80C1534
:10100000C0F8142524E0A068411C02D0002102F0A1
:10101000C0FCE068411C05D08540C7F80855E06871
:1010200002F0CAFCD4E902123068C0F80825C0F802
:101030001015BDE8F081607D217D32680843C2F85B
:101040006C05D4E900123068C0F81425C0F80C15FE
:10105000207D0128D7D0ECE7102800200349084262
:1010600001D10120704700207047000000C0F0FF50
:10107000F0B50C4693B01F210726ADF80010ADF86F
:101080000410002750B1C17849070DD56A4602A95E
:10109000FFF737FC002808D102AD02E00025ADF8CB
:1010A00000706CB1E07810B1304613B0F0BD01AA09
:1010B0000AA92046FFF725FC0028F6D10AAA02E07B
:1010C0000022ADF80470BDF80400C3B2BDF8000002
:1010D000C1B2284672DFE8E72DE9F0471F46DDF888
:1010E000208013468946040042D0EBB3404D0120D6
:1010F00000262870EE70202219463E48FEF79CF824
:10110000C5E904784FF6FF702881AE613948AE8397
:10111000AE773C212030FEF7A8F836482178203001
:101120000170A1788170E178C170617841703149B6
:10113000D4E90423C1E90C23D4E90223C1E90A2339
:10114000D4E90623C1E90E23616AE1B100F13C0153
:1011500000F1480241628A60636A1B880B80616A01
:10116000436A8988998000E002E00021436A07E031
:101170000E20BDE8F087656AAD686D5C5554491C6A
:101180009D888D42F7D8A16AD9B11A4A9432A2F14A
:101190000C018A608162A36A9B888B80A16A836A42
:1011A000098819800021836A04E0A56AAD686D5C36
:1011B0005554491C9D888D42F7D894F82C1080F81E
:1011C0002C10216A49B10A490A310162226A528807
:1011D0004A80216A026A09881180616801B1416010
:1011E0004946BDE8F04703482030FFF741BF000003
:1011F00080210020B426002010B50188144C10294D
:1012000018D011291CD01B2919D1007A002816D119
:10121000E0780521401CB0FBF1F201FB120000BF99
:1012200000F018F800280AD06169002907D0BDE84D
:1012300010400847C17B012901D18088208110BD61
:1012400000216171808821898842F8D10120E7E777
:10125000802100202DE9F0413D4C804686B0207869
:1012600048B184F8038004A800F0A4FF0498012684
:1012700028B1667067E0082006B0BDE8F08100255F
:10128000A561344FA583A577787810B1E07801285F
:1012900006D0B87858B1E078012801D0022806D1EC
:1012A000216919B126710820884700E02571404660
:1012B000FFF7E8FBE070216939B1032801D0042869
:1012C00003D1387808B1607990B1A5710095029585
:1012D000019503958DF800508DF808501C48E17871
:1012E0001830052925D2DFE801F03008111D210052
:1012F000E571A67107208847E8E7A67001908DF890
:101300000060ADF80C50ADF80A5014E00221A17055
:1013100001908DF80060B889ADF80C003889ADF8FF
:101320000A0008E0684603F067F802E0684603F048
:1013300087F8E07818B1684673DF00289CD12169EE
:1013400009B1A0788847002096E7A570F7E700006C
:1013500080210020B426002070B5054601461C22DD
:101360000F48FDF769FF0F4C00262670286830B142
:10137000016861604068A060201D7ADF02E00948D2
:10138000001D7BDF00280AD14FF6FF706080667079
:10139000BDE87040044A00210448FFF795BC70BDC9
:1013A00088270020A0210020114F0200F0500200E9
:1013B00070B51E4C068800231B49E289102E15D0FB
:1013C0001B4D112E1CD0122E29D0502E17D130F8C3
:1013D000061F914213D14189022910D10C3000F02F
:1013E000F6F888B1BDE8704000F0C8BD84884C8034
:1013F0000469CC60406908614B70002AF2D070BD6E
:101400004FF6FF7048804B702868FFF7EBFC002810
:10141000F5D0A1690029F2D0BDE870400847826884
:10142000CA60C0680861DDE7A0210020882700208D
:10143000F05002007CB5054608880C460930904201
:1014400001D90C207CBD68466DDF0028FAD12188C7
:101450000820685420881B21401C80B22080295419
:101460002088401C80B220802844DDF801100160F3
:10147000BDF8051081802088801D80B220809DF8F5
:101480000010490800D0012129542088401C2080E8
:1014900000207CBD10B50446FFF78AFF21460748AF
:1014A00000F040F8204602F0B9FC2046FFF7A4FE09
:1014B0002046BDE8104000F06DBA0000FC2200207C
:1014C00030B5174B0D4604000FCB85B08DE80F00EB
:1014D00023D015B34FF6FF70A0822868A0610020CA
:1014E000A0752146684663DF002814D120788DF866
:1014F00012000120ADF81000A21C04A9A0DF0028F2
:1015000009D12946204602F0A4FD002803D129462E
:10151000204603F0E7FA05B030BD0E20FBE70000DF
:10152000F450020010B5002822D0002920D00A88EB
:10153000102A18D0112A18D0502A19D104468A1D11
:10154000C888238A1231984202D15389022B10D0C5
:10155000A38898420CD1A369002B09D05289204658
:10156000BDE810401847898801E04FF6FF7181827D
:1015700010BD084600F02BF800B10120A07510BD89
:1015800007B584B068B1828AA2F57F43FF3B0AD0D9
:10159000827D42B1BDF81820142A06D9072007B071
:1015A00000BD0E20FBE70820F9E70022009201921F
:1015B000029203928289039106A90291ADF800205C
:1015C00001218DF80210808A6946A6DFE7E70078DE
:1015D00000F001007047000000B5134889B00023F7
:1015E000006807905022114907A802F0BBFF08B11C
:1015F000FFF736FB6A460121002002F09DFF08B18B
:10160000FFF72EFB1720ADF81000684602F044FFEC
:1016100008B1FFF725FB064802F034FF002801D08F
:10162000FFF71EFB09B000BD70500200AC22002085
:1016300095140200F8B50646114C00208DF8000004
:1016400020684FF0FF3548B1007950B1002000F01C
:1016500015F930B12068007918B10FE06FF07E0005
:10166000F8BD216801236A46487A0C693D21A047EC
:1016700005469DF8000000F00F0030702846F8BDC8
:1016800044210020FEB500212F4C8DF800108DF86C
:1016900004100291014620600123CD68407A01AA1E
:1016A0000721A847216805460123487A0E696A4642
:1016B0000021B047216805449DF800000870487A71
:1016C00001230E696A461946B047216805449DF812
:1016D00000004871487A01230E696A460221B0472A
:1016E000216805449DF800008871487A01230E693D
:1016F0006A460321B047216805449DF80000C8717F
:10170000487A01230E696A460621B04721680544DC
:101710009DF800000872487A02230E6902AA04218B
:10172000B04721680544BDF808004880487A012385
:101730000E696A460721B047226828449DF80010C8
:1017400040B21171FEBD0000442100202DE9FC4192
:1017500006460020284C8DF800008DF80400206813
:101760004FF0FF3520B101A8FFF764FF20B140E042
:101770006FF07E00BDE8FC819DF804004FF4167701
:1017800048B1216801236A46487A0D693D21A8477E
:1017900005001CD02BE0216801236A46487A0D69B8
:1017A0003D21A847050024D19DF80000012366F3E0
:1017B00003008DF8000021686A46487ACD683D2113
:1017C000A84745B2206841693846884711E09DF82E
:1017D0000000012220F00F008DF8000069463D2036
:1017E00000F076F805462068416914208847002EED
:1017F000D1D12846BEE70000442100202DE9FC415C
:10180000064600201C4D8DF800008DF80400286865
:101810004FF0FF3420B101A8FFF70CFF20B122E008
:101820006FF07E00BDE8FC819DF8040018B1002037
:10183000FFF78CFFB8B9286801236A46477A046924
:101840003E213846A04704000DD19DF80000012339
:1018500066F301008DF8000029686A46487ACC6872
:101860003E21A04744B29DF8040018B1FFF76EFF77
:10187000204444B22046D5E744210020F8B505466F
:10188000124C00208DF8000020684FF0FF3650B158
:10189000477A0123D0F810C06A4607213846E0474E
:1018A00020B13046F8BD6FF07E00F8BD8DF80050D5
:1018B000216801236A46487ACE680721B04740B2C2
:1018C0000028F2D121680D71F8BD000044210020EC
:1018D000F0B406460748006840B1457A1346C4682C
:1018E0000A4631462846A446F0BC6047F0BC6FF07B
:1018F0007E0070474421002007490B5C4FF0A04157
:10190000D1F804250120984020EA0203C1F80835E7
:101910001040C1F80C057047D65002000249085C1F
:10192000002102F06BB80000D65002000249085CAA
:10193000012102F063B80000D65002000549095C9D
:101940004FF0A040D0F80405C84010F0010000D0CE
:1019500001207047D650020010B500242046FFF742
:10196000DDFF641C032CF9D310BD10B50024204604
:10197000FFF7DCFF641C032CF9D310BD044B0246B7
:1019800000211B784FF0FF30934200D1084670478A
:10199000D550020010B51A4C0188606810290ED08D
:1019A00011292BD1401E606028D1FFF797F800283D
:1019B00024D02168002921D0BDE810400847D0B9C3
:1019C00000210122084600F057F808B107280FD17E
:1019D00007220221012000F04FF808B1072807D1A3
:1019E00004220221002000F047F820B1072802D08D
:1019F000216801B188476068401C606010BD00002C
:101A0000782100202DE9F0410D468046FFF7B6FF12
:101A100000282BD1174F16487C1C261FFDB1012D25
:101A20000BD0022D22D16578002D1FD031690029FD
:101A30001CD02846BDE8F04108472578617859B1A7
:101A4000B1680C4A01EB81014900521E8068FFF722
:101A500085F908B986F80280A0783870E4E78068D4
:101A6000FFF7C0F93878A578A842DDD0BDE8F0814D
:101A7000DC5002006721002003004FF000000AD173
:101A8000094B012A02D1012907D0002251B10129B5
:101A900004D0022904D0072070470E221A70704724
:101AA0005A7070479A70704768210020044A0146B6
:101AB0000020127BD20702D0084600F003B870471E
:101AC000642100202DE9F047594C05460026607836
:101AD00018B100206070FFF73FFF0120554F4FF411
:101AE0007A694FF4C87A4FF06408182D2CD2DFE8D9
:101AF00005F0890C0C2C3A4751565A615A619B6982
:101B000069696969898C8F929B9B0020FFF716FF9A
:101B100000284FF0000008D0FFF700FF022D02D18F
:101B20004FF4E16006E0484604E0FFF7FFFE022DB7
:101B30002ED05046B0FBF8F12570A068414300223A
:101B40003868FFF70BF9064659E00020FFF7F6FE6C
:101B500028B10020FFF7E2FE4FF44870EAE70020CA
:101B6000FFF7E4FE14E00020FFF7E8FE00284FF046
:101B7000000002D0FFF7D2FED5E7FFF7D7FED8E787
:101B80000020FFF7DBFE0028E9D00020FFF7C6FEAB
:101B9000C820CFE70020FFF7AFFE257007E0002048
:101BA0003FE025702BE060700120FFF7A5FE0022CA
:101BB000A168C5E760700120FFF79EFEA06800EBFA
:101BC0008001BCE77868FFF70DF90646D5F11100F2
:101BD00000D01EB10220FFF7A1FE10E001280BD9B2
:101BE000C82110FB01F1B1FBF8F1A06800224143CC
:101BF0007868FFF7B3F806460220FFF797FE3046F5
:101C0000BDE8F087FFF7A8FECBE7FFF7A5FEC6E724
:101C1000FFF7A2FE04E0FFF79FFE0020FFF786FE1D
:101C20000120FFF783FEBCE7FFF79FFEB9E7000046
:101C300064210020DC500200F8B5461C00208DF81D
:101C400000000D4601246846FFF76EF9114A10683E
:101C50002860D2E900109568081A2B1A701C5B1CCA
:101C600098420FD963B10C480C4B294000681B689F
:101C700002EB810163F39F20C8601068401C106074
:101C8000002401E0881910609DF80000FFF770F94A
:101C90002046F8BD6C290020605102001822002067
:101CA000034803C8814201D10120704700207047DA
:101CB0006C29002070B50F4D012906D00E4C00266E
:101CC00066606078012808D00CE02868BDE87040A4
:101CD000002240F6CD41FFF741B80120207028686E
:101CE000FFF780F86078002803D12868FFF77AF8BA
:101CF000267070BD8C50020030210020134810B5B2
:101D0000042101700121417000218170104941605E
:101D100040F266620121FEF743FFFEF72FFF0D4AF6
:101D200001210D48FEF7D0FF4FF0A040D0F810057C
:101D3000000910F0010F08D00748002240F6CD41FD
:101D40000068BDE81040FFF709B810BD3821002039
:101D5000B51C0200A14602008C50020005494FF05C
:101D6000FF32082841F8202002D3084480F8482098
:101D700070470000B8270020F0B54FF0FF3512B1D2
:101D80000023082601E008230C260C4C05E000BFC8
:101D900054F823707F1C04D05B1CB342F8D3284650
:101DA000F0BD26185DB286F8305044F82310002AA2
:101DB000F5D1E11881F84800F1E70000B8270020CC
:101DC0000249084490F9300070470000B82700200D
:101DD00070B5084C050009D010342168002907D0DF
:101DE00008682060496828468847F6E70834F4E721
:101DF00070BD0000A42700202DE9F05F264841684F
:101E0000F1B3DFF898B00E688146DBF800408768D0
:101E10008078E11B21F07F45ED1CB0B9DFF88080B0
:101E20004FF48030C8F84403C8F804031120FDF7CC
:101E3000DBFD1120FDF7EEFD4FF0010AC8F800A010
:101E40002F2000F059FF89F802A0B54200D2354694
:101E5000124BE8193C3320F07F401860DBF800108B
:101E60005A46091B21F07F41001B20F07F40C91C0E
:101E700081420FD9106818602F2000F03DFF00E06C
:101E800004E0BDE8F05F1120FDF7DABDBDE8F05FCA
:101E900002F0A8B8BDE8F09FD82100200415014049
:101EA000001001402DE9F04117880646B81D144680
:101EB0000D46984202D90C20BDE8F08131880722F6
:101EC00006290AD34FF4486C4FF6FF73614501D9D8
:101ED000994202D17088062801D21046ECE760458D
:101EE00001D99842F9D1994203D0984201D0814258
:101EF000F3D80520E85520881221401C80B22080AC
:101F000029542088401C80B220804119308802F07A
:101F1000FAFF2188084480B220804119708802F0BD
:101F2000F2FF2188084420800020C5E7FEF798BE14
:101F300000B587B01C216846FDF797F900204FF4E3
:101F40002031CDE900014FF47021029103218DF879
:101F50000C10ADF80E008DF81000064805900648EC
:101F600006906846FFF7F8F9002801D0FEF778FEE2
:101F700007B000BD053F02002D1F0200F8B5134851
:101F800000F04EFB114D0026114C0C3D30B1616943
:101F9000B9B101208DF80000684611E0287820B121
:101FA000616971B18DF80060F6E7687858B1A16891
:101FB000084800220068FEF7D1FE10B1A16901B106
:101FC00088472E70F8BD6168F2E70000AC21002060
:101FD00088270020F05002002DE9F041002601255D
:101FE000144C22E06068226900EBC607387805FAD5
:101FF00000F1114217D08A43226100F0DFFF024650
:102000003878E36805FA00F1194002FA00F39942C2
:1020100009D17978012901D0012100E00021514046
:102020007A6802B19047761CF6B220788642D9D3FE
:10203000BDE8F081C421002030B530498BB00B7869
:1020400013B15A1ED2B200E063222D4C34F8133083
:10205000B3F57A7F40D934F81220142A3CD2886034
:10206000CA68C860821A4878C83444F82020401CE6
:10207000C0B24870092801D900204870606A78B160
:1020800028216846FDF7F1F80021684654F8212020
:1020900040F82120491C0A29F8DB0922002103E02D
:1020A00018A017E000210AE000EB810450F821306D
:1020B0006568AB4202D940F821506360491C9142E7
:1020C000F2DB521E002AEDDC039A0799891A78295F
:1020D00005D913A0FDF78AFF00200BB030BD002208
:1020E0005FF0030150F82130491C1A440729F9DD3B
:1020F0001248B0FBF2F0C0B2EFE700004821002028
:102100006425002031205761697420666F72207643
:10211000616C6964206461746120210A0000000020
:1021200032205761697420666F722076616C696431
:10213000206461746120210A00000000E093040023
:102140000E4910B50A784C780023A24212D0521CD6
:10215000D2B20A70022A00D10B70084A0B781832EA
:1021600052F8232002608868104420F07F40886085
:10217000012010BD0360002010BD0000D821002008
:10218000826883881A4003689A5C0A708168491CD7
:1021900081607047C26883881A4003689954C16897
:1021A000491CC160704710B50446C0B2FEF79EFEE0
:1021B000204610BD20B10349496E016000207047E0
:1021C00003207047042900200EB513A19DF80800D4
:1021D00020F00F00401C20F0F00010308DF80800B7
:1021E000062202A87CDF08B1FEF73AFD002000902D
:1021F00001901021ADF80400ADF800104FF4C87044
:102200003C21ADF80600ADF8021068467ADF0028E0
:1022100001D0FEF725FD0EBD4D2D42616E6400001C
:1022200007490A78521CD2B20A70642A01D30022EC
:102230000A70044A097880B222F811007047000041
:1022400048210020642500201CB5052001F0AAFBD0
:102250000E2001F0A7FB0F2001F0A4FB102001F0DD
:10226000A1FB0023042000931A461946019301F0B4
:1022700051FB092001F096FBBDE81C401F2001F036
:1022800091BB00002DE9F041124E07460125BD40EB
:102290003068FEF7A7FD00280DD10F4C20692842B9
:1022A00007D1384600F08AFE0028E06805D02843B0
:1022B00004E0A8432061BDE8F081A843E060206904
:1022C00028432061A1683068BDE8F0410022FEF794
:1022D00045BD000018510200C4210020F8B51C4C77
:1022E0002078002832D0E068002658B100256078B8
:1022F00000282BD1684648DF052805D030B1FEF70D
:10230000AFFC0AE00125F2E7012606E0009800F0A4
:1023100077FD216909B1009888479DB96078002848
:1023200014D16088ADF800006946A06861DF052817
:1023300003D020B1FEF794FC04E0012502E0D4E9CB
:1023400002018847002ED2D0002DE6D0F8BD000053
:102350001C22002070B50E460446007918494FF43F
:10236000A27501EB4010017F2068A1B14FF4887184
:1023700001F027FD4FF49071206801F022FD4FF429
:102380009271206801F01DFD2946206801F019FDB9
:102390000C49206809E04FF48E7101F001FD2946D7
:1023A000206801F0FDFC08492068C0F8041320688B
:1023B00000F052FD3146BDE8704000F031BD000034
:1023C0001028002010030200800002002DE9F843CD
:1023D00000251646884604462F4614E04FF4A070A8
:1023E00000EB85004FF480312258A9404AB1D4F85F
:1023F00004230A4205D0275021580091D8E9002132
:1024000090476D1CEDB2B542E8D3BDE8F88370B5D6
:102410000C460546102101F054FC68B14FF4887653
:102420003146284601F042FC30B13146284601F0E1
:1024300042FC2168012088472021284601F041FC08
:1024400068B14FF48A763146284601F02FFC30B14E
:102450003146284601F02FFC216802208847802160
:10246000284601F02EFC68B14FF48E76314628469E
:1024700001F01CFC30B13146284601F01CFC2168FB
:10248000002088474FF482763146284601F00EFC42
:1024900000280AD03146284601F00DFC01202071A9
:1024A0002168BDE870400320084770BD2DE9FF4753
:1024B0000D464FF492770446394601F061FC4FF027
:1024C00002094FF001084FF4827640B139462046A8
:1024D00001F05BFC3146204601F052FCB0B3B2463D
:1024E0003146204601F04CFC4FF0FF36002770B318
:1024F0005146204601F049FC05F10C0001AB07C82C
:1025000083E8070095F8230078B1287B01282DD0B7
:10251000D4F84C05C0B28DF80600287B022828D0DC
:10252000D4F84C05C0B28DF807004FF4B0712046C6
:1025300001F02BFC4FF4AE71204601F026FC95F81B
:10254000250080B395F8230068BB3CE000E013E071
:10255000A868C4F80803C5F80890A868C4F804037C
:10256000C4F82080C4F81480BDE8FF87D4F83C0587
:10257000D0E7D4F83C05D5E74FF4A471204601F02C
:1025800004FC287B80B14FF40070C4F80002801C6A
:10259000A860C4F80863A868C4F80403C4F80880F5
:1025A000C4F82080E0E708E005F10C0001AB07C8A3
:1025B00083E8070095F8250028B90020C4F8000238
:1025C000AF60C4F80863D4F8C404C4F8C404810735
:1025D00002D58DF8008006E0400702D58DF8009006
:1025E00001E08DF8007095F8250008B985F8247091
:1025F000D5E9002168469047B6E7000001218140F7
:1026000003484068014201D0012070470020704714
:10261000B4210020014601208840FEF71FBD0000C4
:10262000054940880A88904204D34988884201D8E5
:102630000120704700207047A42100200121814023
:102640000348014201D0012070470020704700007C
:10265000FF3F0F002DE9F043264CA4F1100922782A
:10266000D9F8048099F80350404694F801C0D9F88D
:10267000086031E002EB42036168521C01EBC301C8
:10268000A378D2B2934200D100220B78022B02D061
:10269000032B21D11DE003464F68194603E0B942E0
:1026A00003D00B46C969B9B1F9E7A9B18B4205D18D
:1026B000C06918B9104E0125B56000260F68C969B8
:1026C000D96149B10B683B440B6005E00174C069F6
:1026D00000E000210028F9D19445CBD1C9E90106D9
:1026E00089F80350404502D00120BDE8F083002066
:1026F000FBE70000E8210020001001402DE9F04137
:102700002A4F0446002607F11005D7F804803EE062
:1027100002D02046E4691DE02878696800EB400299
:10272000401CC0B201EBC2012870AA78904200D1CF
:102730002E700A784868012A2BD1027C4ABB8A682D
:102740004260CA6882600A69C26049698161F97839
:1027500001B146604368BA68DFF854C0991A21F0A5
:102760007F41614502D28268114406E0D11A826835
:1027700021F07F418A4202D9511A016000E00660CF
:102780004660012186600174C66101F06BFF002C78
:10279000BED1287869788842BED17968414502D097
:1027A0000120BDE8F0810020FBE70000D8210020D7
:1027B000FFFF7F0010B5074C607808B1012010BD05
:1027C0005D20207041F2883000F00AFA012060702C
:1027D000F4E70000402100202DE9FC41314D0024A8
:1027E00001946978F1B3294620260978D8B3C0202E
:1027F0008DF804608DF80500022301AA2A48009490
:1028000000F058FE212784208DF804708DF8050013
:102810000094022301AA2978234800F04BFEC62029
:102820008DF804608DF805000094022301AA297830
:102830001D4800F03FFE10210F208DF804108DF888
:1028400005000094022301AA2978174800F032FEFF
:102850002E21C3208DF804108DF80500022301AA53
:10286000009401E00EE010E029780F4800F022FE0D
:1028700040208DF804708DF805000094022301AA11
:1028800029780AE00020BDE8FC8100208DF8046072
:102890008DF80500022301AA0094034800F00AFE07
:1028A0004046F0E740210020A8500200FEF794FEC9
:1028B0000023284A05211846FEF718FA08B1FEF74A
:1028C000CFF901F0C9FF02F0F3F9FFF7BDFC01F009
:1028D0007FFC01F0BFFC01F0AFFC00F0D1F8FFF786
:1028E00069FF0120FFF778FFFFF76EFC01F074FD30
:1028F000FEF710F9FFF71CFB17A0FDF777FB03208D
:10290000FEF7A8FC0446FFF7F9F9200001D0FEF716
:10291000A7F94FF0A044144E4FF40048E500134FC0
:1029200001F052FB3078012801D018B104E0C4F85E
:10293000088501E0C4F80C85D4F8041525EA0100E7
:10294000C4F8080501F00040C4F80C05384600F052
:10295000BBF8E5E7342200200D0A554152542053BC
:1029600074617274210D0A003121002020A107003A
:1029700070B5144682880E4605462088111D014414
:10298000921C994201D8FE2A01D90C2070BD521C1C
:1029900032542088FF21401C80B22080315420888E
:1029A000401C80B220808119288802F0ACFA21886E
:1029B000084480B22080AA8842B1A96841B130445D
:1029C000FCF73AFC2088A98808442080002070BDCC
:1029D000072070BDF8B50E4601781446054601295A
:1029E00001D1687830B12088821C9A422DD8012903
:1029F00002D006E00720F8BD69780144891C99429D
:102A000023D8181A801E87B2ADF800702188B01C38
:102A1000084469467DDF0028EDD12878022805D1D9
:102A2000BDF80010B94201D809210AE008210128A7
:102A300005D16878B84202D8ADF8000001E0ADF8E1
:102A40000070BDF80000FE2801D90C20F8BD2288D6
:102A5000401CB0542088401C80B220803154208813
:102A6000401C2080BDF80010084420800020F8BDE4
:102A7000C20800F007030120895C984008407047B5
:102A800010B5FCF79DFF0748FEF7FCFD0020FEF7A0
:102A9000B5FE0720FEF75AFEBDE810400920FEF7FC
:102AA00055BE00004C25002000F180400068002841
:102AB00000D00120704708B500F18040002101607E
:102AC0000068009008BD000000283ED01F49204A41
:102AD000096800BF00BF00BF00BF00BF00BF00BF4C
:102AE00000BF91422FD000BF00BF00BF00BF00BF9A
:102AF00000BF00BF00BF00BF00BF00BF00BF00BFDE
:102B000000BF00BF00BF00BF00BF00BF00BF00BFCD
:102B100000BF00BF00BF00BF00BF00BF00BF00BFBD
:102B200000BF00BF00BF00BF00BF00BF00BF00BFAD
:102B300000BF00BF00BF00BF00BF00BF00BF00BF9D
:102B400000BF00BF00BF0138C3D170473022002052
:102B50000024F40000283ED01F49204A096800BF25
:102B600000BF00BF00BF00BF00BF00BF00BF914259
:102B70002FD000BF00BF00BF00BF00BF00BF00BF1D
:102B800000BF00BF00BF00BF00BF00BF00BF00BF4D
:102B900000BF00BF00BF00BF00BF00BF00BF00BF3D
:102BA00000BF00BF00BF00BF00BF00BF00BF00BF2D
:102BB00000BF00BF00BF00BF00BF00BF00BF00BF1D
:102BC00000BF00BF00BF00BF00BF00BF00BF00BF0D
:102BD00000BF0138C3D17047302200200024F40028
:102BE00000283ED01F49204A096800BF00BF00BF2F
:102BF00000BF00BF00BF00BF00BF91422FD000BF89
:102C000000BF00BF00BF00BF00BF00BF00BF00BFCC
:102C100000BF00BF00BF00BF00BF00BF00BF00BFBC
:102C200000BF00BF00BF00BF00BF00BF00BF00BFAC
:102C300000BF00BF00BF00BF00BF00BF00BF00BF9C
:102C400000BF00BF00BF00BF00BF00BF00BF00BF8C
:102C500000BF00BF00BF00BF00BF00BF00BF013802
:102C6000C3D17047302200200024F40000283ED059
:102C70001F49204A096800BF00BF00BF00BF00BF56
:102C800000BF00BF00BF91422FD000BF00BF00BFF8
:102C900000BF00BF00BF00BF00BF00BF00BF00BF3C
:102CA00000BF00BF00BF00BF00BF00BF00BF00BF2C
:102CB00000BF00BF00BF00BF00BF00BF00BF00BF1C
:102CC00000BF00BF00BF00BF00BF00BF00BF00BF0C
:102CD00000BF00BF00BF00BF00BF00BF00BF00BFFC
:102CE00000BF00BF00BF00BF00BF0138C3D17047A5
:102CF000302200200024F40000283ED01F49204A42
:102D0000096800BF00BF00BF00BF00BF00BF00BF19
:102D100000BF91422FD000BF00BF00BF00BF00BF67
:102D200000BF00BF00BF00BF00BF00BF00BF00BFAB
:102D300000BF00BF00BF00BF00BF00BF00BF00BF9B
:102D400000BF00BF00BF00BF00BF00BF00BF00BF8B
:102D500000BF00BF00BF00BF00BF00BF00BF00BF7B
:102D600000BF00BF00BF00BF00BF00BF00BF00BF6B
:102D700000BF00BF00BF0138C3D170473022002020
:102D80000024F4002DE9F0410F4D0026287808B109
:102D9000852616E00024AC606C602C61EC604FF07E
:102DA000E020D0F80001012710F0010F03D1072126
:102DB000002000F035F801F007FC08B90348046072
:102DC0002F703046BDE8F081A42700201805004090
:102DD00038B500208DF800006846FEF7A5F8074CCE
:102DE000207808B9FFF7CEFFE068401CE0600120C2
:102DF000A0709DF80000FEF7BBF838BDA4270020A6
:102E0000002801D1FEF7E4BF704700F01F02012146
:102E100091404009800000F1E020C0F88011704727
:102E20004907090E002806DA00F00F0202F1E0223D
:102E300082F8141D03E000F1E02282F8001400F093
:102E40001F02012191404009800000F1E020C0F8FC
:102E50008012C0F800117047000B40B270470000AC
:102E60002DE9F0418846054601F05AF8234E002826
:102E700028461AD0FEF7A4FF304490F84800800995
:102E8000032802D001280ED007E04FF0A040D0F870
:102E90001005E84010F0010F05D003212846BDE8D9
:102EA000F04100F093BD0221F8E701F045F8002859
:102EB00022D02846FEF784FF04464FF4807000EBD2
:102EC00084000F4F81B207EB8400D0F8102542F048
:102ED0000102C0F81025084600F0B0FDB8F1000F5F
:102EE0000AD02846FEF76CFF56F82000002803D0D1
:102EF0000120A040C7F80403BDE8F081B8270020F6
:102F0000006000402DE9FC41DFF8A480044608EB96
:102F10000400002790F930001346C0170E46401CED
:102F200001D0082741E0F27819462046FEF724FF39
:102F30000546401C38D0B07850B14FF0A04000EBAF
:102F40008400D0F8001721F00201C0F8001707E054
:102F500000217378204600910A46019100F0ECFCB4
:102F6000F078C0B11348317800EB8500D0F8102517
:102F7000114B1A40C0F810254FF4F8524FF440336B
:102F800002EA042203EA01410A43D0F810150A4379
:102F9000C0F8102509E008EB0500327810F8481F4A
:102FA00041EA8211017000E004273846BDE8FC8147
:102FB000B827002000600040FFE0FCFF4FF0A04178
:102FC000D1F81015C14011F0010000D00120704768
:102FD00070B5144D95F8540008B1082070BD00205C
:102FE000411E2A18401CC0B282F830102028F8D3A5
:102FF00000242046FEF7B2FE641CE4B20C2CF8D389
:1030000007210620FFF70CFF4FF4BE7000F016FDFD
:1030100005494FF00040C1F80403012085F8540031
:10302000002070BDB827002000600040034890F8E1
:103030005400002800D0012070470000B82700206D
:103040000121B1EB507F01D1012070470020704772
:103050000121B1EB507F01D1012070470020704762
:103060002DE9F84F0427174E00248246A1464FF061
:10307000010800BF8DF800906846FDF755FF08FA7B
:1030800004F5354203D02046FFF7B8FA60B19DF849
:103090000000FDF76DFF27B104F10104AE43E4B277
:1030A000E8D13846BDE8F88F074908FA04F0002750
:1030B0004A68104348608AF800409DF80000FDF718
:1030C00057FFEEE7FF3F0F00B42100202DE9F0414C
:1030D00014460D00074612D08CB10026FFF7AEFA59
:1030E00078B13846FFF78AFA68B1084800EBC700A4
:1030F000C0F81055C0F814453046BDE8F0810E20E8
:10310000FBE70726F8E70826F6E7000000F0014095
:1031100070B505460024FFF77DFA68B12846FFF731
:103120008DFA18B12846FFF769FA38B10449012031
:10313000A8400860204670BD0724FBE70824F9E793
:1031400004F501400448017809B185207047012148
:103150000170002070470000B42100202DE9F041EB
:10316000254C064612200D46C4F808032348017C6E
:10317000022918D0027C01464FF4807891F82E1075
:10318000012A12D00222C4F80423012707744660E2
:1031900005810022C26021B3458390F82D1030468E
:1031A00000F096FD25E0122002E0C2682AB102205C
:1031B000C4F804031120BDE8F081C660058361B93D
:1031C0004746384600F0CAFD0028FAD0384600F0DD
:1031D000CDFD2946304600F07BFD0220C4F80403F3
:1031E00007E02946304600F073FD404600F0BEFD82
:1031F00027600020DFE70000007000405828002012
:1032000070B50F4A05460C46107C08B1112070BD00
:1032100002EB4501087F18B912F82D0F401C107001
:10322000E0790877207A48772146284600F058FD53
:10323000227AE179284600F087FD002070BD000069
:10324000582800202DE9F0411C4C054694F82C002C
:1032500010B10820BDE8F08109B115B102E00720E6
:10326000F8E7174D44F8101B164928780860091D27
:1032700068780860E878A077012727770020207019
:1032800060776060104EE0776FF00040C6F808038A
:103290004FF4827000F06AFDA9780720FFF7C0FDA7
:1032A0000220C6F80403A07F10B10120C6F8040371
:1032B0000448F03807600020CCE7000058280020C0
:1032C00014510200F075004000700040044890F86E
:1032D0002E0008B1002000E0042002490844704795
:1032E000582800200070004030B54FF48034056845
:1032F0008C4013B1C5F8044301E0C5F808430068E9
:1033000000EB8100C0F8402530BD000001680122BB
:103310000A600079034A00EB400002EB80000221C2
:103320000172704788280020F0B40468049E40F2BF
:103330000115D4F800728D40AF43C4F800720468E0
:10334000D4F800521D43C4F800523346F0BCFFF7D6
:10335000CBBF0000F8B504460D460079204900EBCC
:10336000400001EB8006307A08B10820F8BD3AB180
:10337000326068687060002003464FF4A07709E06F
:103380000720F8BD226807EB800153505158401CBC
:10339000C0B2009161798142F4D82068E978000BCD
:1033A00040B2FFF73DFD20686978D0F8042561F34D
:1033B0000102C0F804252068A978D0F8082561F337
:1033C0000102C0F8082520682978D0F8102561F39B
:1033D0000302C0F81025012030720020F8BD000063
:1033E000882800200179064A01EB8101006802EB80
:1033F000C1010622C0F80025022081F82200704792
:103400003028002070B506460D4600791F4900EBB4
:10341000800001EBC00494F8220008B1082070BDC0
:103420000020C4E90023A06084F8250084F824006B
:10343000A87B84F82700687B10B1284601F0B6F914
:10344000296840F20C60890001F1A041C1F8000731
:103450006968890001F1A041C1F80007D5E90012AF
:103460003068C0F80815C0F80C25A968C0F8241504
:10347000206828B13068297B000B40B2FFF7D0FCF0
:10348000012084F82200002070BD000030280020B8
:103490003EB5074D2C68AD6800948DF8011001927F
:1034A00002958DF802300022694600F015F83EBD05
:1034B000085102003EB500250095069C8DF80110CC
:1034C00002958DF8023001920CB1202200E000221A
:1034D000694600F001F83EBD30B40379064C03EBB9
:1034E000830304EBC304006813460A4601462046E2
:1034F00030BC01F0C7B90000302800202DE9F041B0
:1035000005460079164F904607EB40140E46E07EC4
:1035100010B10820BDE8F081707F20772846FDF7C4
:1035200041FD5FEA080060603169216003D0317FAE
:103530002846FEF70FFF287907EB4010007F002890
:10354000286801D0082100E00421C0F800150020FF
:10355000E0752076A0750121E176A076DAE700001B
:10356000102800202DE9F04105460079284E9046AC
:1035700006EB40140F46207F18B10846FFF760FDA8
:1035800080B1626800234FF404704FF4017172B18E
:103590002A7906EB4212127F002A2A6805D0C2F867
:1035A000080304E01020BDE8F081C2F80813E27DB2
:1035B000B2B1227E7AB162685AB12A7906EB421220
:1035C000127F1AB12968C1F8040302E02868C0F824
:1035D00004131120E7E72761012384F8188005E030
:1035E00084F817800020E7606076207628794246CC
:1035F00006EB40103946007F0028284603D0BDE87E
:10360000F04100F073B8BDE8F04100F01BB80000D5
:103610001028002070B504460079094D05EB4010D4
:10362000017F00290AD1807E002807D1204600F0C2
:103630008AFD2179012005EB4111887670BD0000DB
:10364000102800202DE9F05F04460079264901EB9F
:103650004015A87E184302D1204600F074FD68682A
:103660000028206806D04FF40171C0F80413002030
:10367000BDE8F09F4FF4A276314600F091FBB146D1
:103680004FF4927A4FF4847B5146206800F083FB1C
:1036900006465946206800F07EFB80464946206871
:1036A00000F079FB074648EA07003043ECD056EAC1
:1036B000070007D12946206800F0B2FCE87D697E4A
:1036C0008842E1D80020E8750EB10320D0E70FB1A1
:1036D0000F20CDE7A97E01200029216801D00860D4
:1036E000C5E74860C3E70000102800202DE9F05F1F
:1036F000894604464FF488759A469046002600682D
:10370000294600F05EFB4FF4A2773946206800F0AE
:1037100058FB2068C0F83495C0F838852068BAF1A5
:10372000000F14D0D0F8001241F02001C0F80012B0
:103730002179DFF8648008EB4110406850B12068BF
:103740004FF40471C0F804133046BDE8F09F012126
:103750000160EDE7AA46B9464FF4927B51462068D6
:1037600000F02AFB07464946206800F025FB054685
:103770005946206800F020FB014647EA050008434F
:10378000ECD02379002208EB4310C27501B1032667
:10379000002DD9D00F26D7E7102800202DE9F047BB
:1037A000054600793F4E904606EB40140F46207FB9
:1037B00018B10846FFF744FC30B1284600F074F811
:1037C00020B11120BDE8F0871020FBE784F81680B7
:1037D000A7600027A78228794FF0010806EB401464
:1037E0003E46207F0028286825D04FF4907949462E
:1037F00000F0E7FA4FF4AC7A5146286800F0E1FA9D
:103800002868A17DA268C0F84425C0F8481528683A
:10381000C0F808806068F0B94946286800F0CCFA22
:1038200080465146286800F0C7FA58EA0001F3D0F4
:1038300058BBA7750FE04FF48E7A514600F0B0FAEE
:103840002868C0F808802146286801F03BF96168C3
:103850004FF4807089B13046B4E75146286800F0D3
:103860009AFA10B9A08A4845F7D1A08A484505D0F0
:103870002146286801F026F900E08146A08AA17D52
:103880008842EAD3A08A484501D10F26D1E75146A4
:10389000286800F080FA0028F9D02868C0F80C8069
:1038A000C7E70000102800200079044901EB401010
:1038B000807D002800D001207047000010280020E3
:1038C00070B5044600791149002601EB40152068C7
:1038D0002A7FC0F80065686888B1207901EB401044
:1038E000007F0028206801D0094901E008498C398F
:1038F000C0F808132068FFF7AFFAFFF786FA2046F2
:1039000000F026FBEE766E6070BD000010280020EF
:103910001003020070B541EA4201DDE904564FF0A0
:10392000A04441EA830141EA052104EB800041EA19
:103930000641C0F8001770BD70B541EA4201DDE9EB
:1039400004564FF0A04441EA830141EA052104EB0B
:10395000800041EA0641C0F8001770BD70B541EA29
:103960004201DDE904564FF0A04441EA830141EAF7
:10397000052104EB800041EA0641C0F8001770BD44
:103980001CB5002100910B4601220191FFF7E6FFD3
:103990001CBD1CB500220B46009211460192FFF798
:1039A000DDFF1CBD1CB5002100910B4601220191D9
:1039B0001146FFF7AFFF1CBD1CB5002100910B465F
:1039C000012201911146FFF7C9FF1CBD4FF0A04233
:1039D00002EB8000D0F8002722F44032C0F8002724
:1039E000D0F8002742EA0141C0F8001770474FF0B5
:1039F000A04201218140C2F80815704701224FF012
:103A0000A043824011B1C3F808257047C3F80C25C4
:103A10007047000018B5084B6C4601441B680093C2
:103A200006E000BF54F82030D3F81035401C08C21F
:103A30008142F7D818BD000004510200034908B5BF
:103A40000844002101600068009008BD006000404B
:103A500002494058012800D0002070470060004013
:103A600030B5184C054689B0207828B16078854279
:103A700002D1002009B030BD202213496846FBF76F
:103A8000DBFB00208DF81400192000901A20019013
:103A900005200390072002904FF0EB700690094834
:103AA000001DFFF70DFF0DB1002200E0074A054899
:103AB0006946001DFFF722FD0028DBD101202070A0
:103AC0006570D6E70C22002040510200A14C020094
:103AD0000120FFF7C5BF00002DE9F04F87B0FEF7CA
:103AE000DFF818B1002007B0BDE8F08F454ED6E9E9
:103AF000014704EA070006EB8000A146641CC56884
:103B00000CE000BFC5F3891000EB9550044404EAB3
:103B1000070006EB8000A146C568641CA807F1D029
:103B200005F003004FF0000B022805D0AA0A01A8F7
:103B3000C5F38313002153E004EA070006EB80007D
:103B400004F1010A0AEA0704C268381B80004FEA40
:103B50009558001DC5F38913804521D929490C3199
:103B600038B106EB840400F0FF0CA8EB00000C3425
:103B700004E00C46002108F0FF0C0846C0B2CDE975
:103B80000210CDE9004CD6F81444C5F3C2005946E2
:103B9000A047404511D108F103080AEB98042AE038
:103BA000002106EB84000C300090CDE901810391E7
:103BB000C5F3C200D6F81444EAE760F38F1509EAAA
:103BC000070006EB8000C56016E000BF04EA070CA2
:103BD00006EB8C0C491CDCF80CC040F804CB641CD0
:103BE0009942F3D3C5F3C2000093D6F8105401AB49
:103BF0005946A84700B17460FEF752F880F0010002
:103C000071E700006C2900202DE9F8430F4F88462A
:103C10000446002569462846BE68FEF70DF80028D0
:103C200012D00B480021406861F38200009964F3D0
:103C3000C50001EA060265F3891007EB820268F30A
:103C40009F20491CD0600091BDE8F8836C290020BA
:103C5000605102002DE9F843124D884604460127C1
:103C6000914669463846AE68FDF7E6FF002817D052
:103C70000D480021806861F38200009964F3C5005B
:103C800001EA060267F3891005EB820268F39F20C0
:103C9000491CD0600091314005EB8101C1F80C90C6
:103CA000BDE8F8836C2900206051020040580028CC
:103CB00000D00120704708B50022425040580090C3
:103CC00008BDD0F80403084000D001207047000070
:103CD000024A1060101D0160704700002C76004001
:103CE00010B50A784B78302402F0030204EA03137B
:103CF0001A438B784FF4E06404EA03231A43CB7829
:103D00004FF4805404EA03331A430B794FF4E02450
:103D100004EA03431A434B794FF4801404EA035333
:103D20001A438B79240104EA03631A43030105480B
:103D30001844C0F81825CA79097AC0F81415C0F8D3
:103D4000102510BD00700040030103481844C0F85E
:103D50001425C0F810157047007000400249405803
:103D6000002800D00120704700700040034908B5CA
:103D70000844002202600068009008BD0070004006
:103D80004058002800D00120704708B5002242505A
:103D90004058009008BD4058002800D001207047CE
:103DA00008B5002242504058009008BDD0F80403E6
:103DB000084000D0012070474058002800D0012062
:103DC000704708B5002242504058009008BD70B5B9
:103DD00016460D46002405E0285DFDF787F800280B
:103DE000FAD1641CB442F7D30D20FDF77FF8002808
:103DF000FAD10A20FDF77AF80028FAD170BD10B583
:103E000000280AD0032808D10220FDF74FFE002821
:103E100003D0BDE81040FCF723BF10BD70B5384D8E
:103E2000044600882E8888B03B2839D00DDC022853
:103E30003AD0102815D011281BD0132822D10023E6
:103E40001A46852130467FDF23E0512830D05228A2
:103E50001AD0552850D0562814D1A088132176DFC7
:103E600017E00720FDF722FE08B1FCF7F9FEA08855
:103E700007E00020FDF71AFE08B1FCF7F1FE4FF64F
:103E8000FF70288008B070BD00231A4619463046DE
:103E9000A9DF0028F6D008B0BDE87040FCF7E0BE0E
:103EA000A088132176DFF4E7A088002167DFF0E720
:103EB0001022A11D04A8FBF7BFF99DF810100029DE
:103EC000E0D09DF81800042803D0062801D005286A
:103ED000D8D102290ED001208DF800004FF4C17016
:103EE000ADF80400A0886946A8DF0028CAD0FCF716
:103EF000B7FEC7E70220EFE7A0881721ADDFC8E7CC
:103F0000282100200078002807D104483B210088A0
:103F100076DF002801D0FCF7A3BE704728210020DF
:103F20000449084490F93000082801DB012070475B
:103F300000207047B82700200449084490F9300059
:103F4000082801D20120704700207047B8270020C0
:103F500070B5034600791B4901EB40101968027FD8
:103F60004FF0FF30002AD1F80C25D1F81465D1F8B4
:103F70000855D1F8104504D0C1F80C05C1F8140556
:103F800003E0C1F81405C1F80C051968C1F808056B
:103F9000C1F81005501C02D01046FFF7F1FC701C50
:103FA00002D03046FFF7ECFC601C02D02046FFF741
:103FB000E7FC681C04D02846BDE87040FFF7E0BC71
:103FC00070BD0000102800203EDF002801D0FCF763
:103FD00047BE70474FF08050D0F80C01800200F1CE
:103FE0000050704770B5012670044FF0E0210025A5
:103FF000C1F88001084C4010C4F84803C4F8080315
:1040000066602F20FEF778FEA660044C2F20A56086
:10401000FEF772FEA57070BD00100140D82100208F
:1040200070B50546C87D0C4600284FF484712846BB
:104030000AD0FFF7B5FED5F81805627EE16888540E
:10404000607E401C607670BDFFF7AAFED5F81805AB
:1040500070BD30B58FB00024054607949DF81C0054
:104060001C2120F00F00401C20F0F00010308DF8D3
:104070001C009DF81D0020F00F00401C20F0F000F7
:1040800010308DF81D009DF81E0020F00600801CE9
:104090008DF81E006846FBF7E8F89DF800000194D3
:1040A00040F010008DF8000007A8CDE9044003940B
:1040B000069428788DF83A000320ADF838000D9466
:1040C0009DF83400142120F00F00401C20F0F00077
:1040D00010308DF834009DF8350020F00F00401CA2
:1040E00020F0F00010308DF835009DF8360020F0FB
:1040F0000600801C20F0180040F001008DF836000A
:1041000008A8FBF7B2F80EA808900DA809900120A6
:10411000ADF828001420ADF82A40ADF82C006888CE
:1041200005F10C0308AA6946A2DF0FB030BD1FB528
:1041300001238DF800308DF808100192D0E90012AB
:10414000684690471FBD10B5044600684FF4927151
:10415000FFF726FE4FF484712068FFF721FE2068E8
:104160000121016010BD000070B5064600780028EE
:1041700027D102217068FEF7F1FF08B1FCF770FD4E
:10418000104D05F11404A869401CA861B4F902009F
:10419000FEF746F8A869FDF74FFFA88018B1014661
:1041A00009A0FBF723FF00200246716831F91010C7
:1041B00024F81010002901DA24F81020401C0228ED
:1041C000F3DB70BD482100202564200A00000000B8
:1041D00000B5164887B00DF10C0C0EC88CE80E0027
:1041E00007C88DE8070001208DF802001049002063
:1041F000FFF728F808B1FCF733FD03A90020FEF70C
:10420000FFFF08B1FCF72CFD69460120FEF7F8FF1F
:1042100008B1FCF725FD02210648FEF79FFF0028A4
:1042200001D0FCF71DFD07B000BD0000C05002002A
:104230006941020058210020054810B58078FEF73A
:1042400067FF002803D0BDE81040FCF709BD10BD92
:10425000482100203EB5FEF775FF08B1FCF700FDD0
:104260001C491D4AD1E90201CDE9010103208DF865
:10427000060001A91748FFF76DF808B1FCF7F0FC3C
:10428000144C2068D0F810054FF47A52C240002038
:104290000146009001232046FFF746F82046FFF72D
:1042A00035F8246804F5A074FFF710F805460B48AC
:1042B000FEF7D6FE08B1FCF7D3FC08482A46801E5C
:1042C00021468078FEF702FF002801D0FCF7C8FCE9
:1042D0003EBD0000B0500200D54502004A2100203A
:1042E00010B50446FBF7A2FE40B1002C09DA04F039
:1042F0000F0000F1E02090F8140D06E042F20100FA
:1043000010BD04F1E02090F800044109082914D2FE
:1043100099B1012911D004290FD005290DD00B48DE
:104320000122816861B1610950F8213004F01F0455
:10433000A240134340F8213005E042F2020010BDD4
:104340002046FBF772FB002010BD0000F82800207B
:104350002DE9F0410746806A14468846C8B3002517
:1043600031E000BFB96A05EB450001EB8006B0887B
:10437000801CFE2802D90C20BDE8F0812288401C58
:1043800008F8020020881622401C80B2208008F81D
:1043900000202088401C80B2208000EB080130887B
:1043A00000F0B1FD2188084480B22080B28842B17B
:1043B000B16871B14044FAF73FFF2088B1880844E2
:1043C00020806D1CEDB297F82C00A842CAD80020BE
:1043D000D2E7FFE70720CFE708B505480090694618
:1043E0000448FDF76DF8002801D0FCF739FC08BD42
:1043F000CF3D0200FC22002010B50F490F4C0A8A65
:1044000042818A8A8281097891B1617981B9E179A1
:1044100071B102210172084904202031C870064898
:1044200000212030FCF724FE002804D1052000E004
:104430000320A070002010BDB426002080210020A1
:1044400010B50E490E4C0A8B42818A8B82810A7804
:10445000042182B1627972B9E27962B102220272F8
:1044600006482030C1700021FCF702FE002804D16C
:104470000620A07000E0A170002010BDB42600202E
:104480008021002018B10349C860002070470E2029
:10449000704700001C2200201CB50E4901910091BC
:1044A000694660DF0446DDE9002082420AD00A49FD
:1044B0000220FFF7CFFBFFF78DFD0099421A07A1FD
:1044C000022003E024B1224611A10120FFF7C2FB24
:1044D00020461CBD28210020905102005344483A38
:1044E0005741524E494E473A52414D2073697A65C1
:1044F0002073686F756C642062652061646A7573EF
:1045000074656420746F2030782578200D0A0000CF
:104510005344483A4552524F523A73645F626C6555
:104520005F656E61626C653A206572726F722030F1
:104530007825780D0A00000070B50E460546144631
:104540001C211046FAF791FE012020800021A16174
:1045500021752672657205B1A072002070BDFCF74E
:1045600057BB00002DE9F041074619B188074FF00D
:10457000000402D00720BDE8F081114D4FF0E0208B
:104580000126A9606A806B60D0F8000110F0010F6D
:1045900003D034460020FBF732FA0A49384610DFD0
:1045A000070005D014B10020FBF73FFA3846E2E7D8
:1045B0002E70FEF70DFCBDE8F0411620FFF790BE0F
:1045C0001C2200205F45020001480078704700006F
:1045D0001C220020704700002DE9F84F204C0025D8
:1045E0006846D4E901B6FDF7ABFD8046FEF732F828
:1045F0000746A946B8F1000F25D00023009ACC4603
:10460000606819E007680146974202D9BA1A026049
:1046100014E0C1F800C0D1F80C80D21BC8693B443B
:104620008A46B8F1000F07D0F71827F07F47C1E995
:104630000178CAF81C500D460028E3D16060284676
:10464000FEF75CF804E02846FEF758F800B917B109
:104650005846FDF7D1FB84F80390BDE8F88F0000C1
:10466000D82100200D4B10B5596831B102680C6893
:10467000A24204D8A21A0A60C161586010BD0B465C
:1046800003E00B46C969121B21B10C689442F8D3B0
:10469000A41A0C600260C161D86110BDD82100204D
:1046A0000E4810B541684A1C426013290FDD44785A
:1046B00000224FF0A041012354B1012C07D103780F
:1046C000002B04D02023C1F80C354270426010BD8D
:1046D0002024C1F8084543704260F0E730210020F3
:1046E0007CB5064600240D468DF800406846FCF770
:1046F0001BFC01A800F03CFC70B105700949466044
:104700009DF8040048709DF80000FCF731FC14206F
:10471000FBF796F920467CBD04249DF80000FCF7C9
:1047200027FCF7E7E82100202DE9F0411D4D6C68DA
:10473000002C35D01C4800270068A968B846401AEC
:1047400020F07F462068B04215D82246361A07442A
:10475000E469107C68B182F81080EB6833B1D2E96B
:104760000501984728B1FCF77BFA02E0D2E9051071
:104770008847002CE6D129786878814206D1401C10
:10478000C0B26870022801D185F8018005486978B7
:10479000183040F82170BDE8F0411420FBF750B903
:1047A000BDE8F081D8210020041501402DE9F04139
:1047B000044640F20C602168890001F1A041C1F873
:1047C00000076168890001F1A041C1F80007206875
:1047D000FFF70DF96068FFF70AF9216840F20D60F4
:1047E000890001F1A041C1F800076168890001F169
:1047F000A041C1F800070420FEF738FA00274FF067
:10480000A04601252179D6F81005C84010F0010F07
:1048100002D0002F1DD010E0217805FA01F0C6F873
:104820000C050420FEF722FA2068FFF7E0F80420C8
:10483000FEF71CFA7F1C092FE4DB20798540C6F8BF
:104840000C550420FEF712FA6068BDE8F041FFF74E
:10485000CEB8BDE8F08100001FB5094B0FCB8DE845
:104860000F00074800231A4669460838FEF7CAFDBC
:1048700008B1FCF7F5F902480838FEF7B3FD1FBD93
:10488000985002002DE9F05F06461F4615460C467B
:104890004FF0000A4FF0080B4FF482795068FEF792
:1048A000D7FB00287ED04FF0FF30C4F8080396F8FD
:1048B000240028B1B068C4F804031120BDE8F09FBB
:1048C000780703D4F80601D4012000E0002086F820
:1048D000240095E8070006F10C0383E80700C7F3FE
:1048E000001086F825006878C4F888054FF48271B6
:1048F0002046FFF74AFA4FF492712046FFF745FA37
:10490000F8074FF0010800D04046C4F85005B8073A
:1049100001D5404600E00020C4F840052878002872
:104920006CD001287DD002284ED0032814D04FF03F
:10493000070A380704D42878032801D044F80B80EC
:10494000306800286ED0780702D54FF40070B06050
:10495000B068C4F80403B0E0A868FEF779FB08B3B8
:104960004FF48070C4F80002A9786868C4F8440560
:10497000C4F848154FF4A8712046FFF706FA4FF423
:10498000B0712046FFF701FA4FF4A4712046FFF7FB
:10499000FCF9C4F82080C4F8088000BF4FF4A87167
:1049A000204600E028E0FFF7EBF90028F6D04FF4AE
:1049B000A8712046FFF7E9F9E878A968C4F844151A
:1049C000C4F848053E4815E0A8786968C4F844155D
:1049D000C4F84805A868FEF73BFB68B1E878A96809
:1049E000C4F83415C4F838054FF48450C4F80002F4
:1049F00040F20220B0609CE710205FE7A878696869
:104A0000C4F84415C4F84805B8060FD54FF48070B3
:104A1000C4F800022A48B0604FF4A4794946204601
:104A200001E00CE01BE0FFF7B0F905E04FF4007087
:104A3000C4F80002801CB060C4F8208079E7A87830
:104A40006968C4F83415C4F838054FF48050C4F8C8
:104A5000000240F20220B0604FF0000BECE7454648
:104A60004FF482774FF492780BE041462046FFF7EF
:104A700087F930B141462046FFF787F92562656125
:104A8000B94649462046FFF77BF90028EDD0D4F817
:104A9000C404C4F8C404002186F8241068B10321BA
:104AA000C20701D04FF40241820701D548F201212B
:104AB000400701D548F202218A465046FEE6000032
:104AC0000002040070B50C4605464FF48E71FFF7E6
